:100000000C94B02B0C94E12B0C94E12B0C94E12B71
:100010000C94E12B0C94E12B0C94E12B0C94E12B30
:100020000C94E12B0C94E12B0C94E12B0C94E12B20
:100030000C94E12B0C94AFEB0C94E12B0C94E12B82
:100040000C94E12B0C942B630C94E12B0C94E12B7E
:100050000C94E12B0C94E12B0C94A5630C9493E588
:100060000C94E12B0C949E640C94C8640C94E12BCA
:100070000C94E12B0C94E12B0C94E12B0C94E12BD0
:100080000C94E12B0C94E12B0C94E12B0C94E12BC0
:100090000C94E12B0C94E12B0C94E12B0C94E12BB0
:1000A0000C94E12B0C94E12B0C94E12B0C94E12BA0
:1000B0000C94E12B0C94E12B0C94E12B0C94E12B90
:1000C0000C94E12B0C94E12B0C94E12B0C94E12B80
:1000D0000C94E12B0C94E12B0C94E12B0C94E12B70
:1000E0000C94E12B159B2D9B2D9B2D9B2D9B2D9BCC
:1000F0002D9B2D9B2D9B2D9B2D9B2D9B2D9B2D9BC0
:100100002D9B2D9B2D9B2D9B2D9B2D9B2D9B2D9BAF
:100110002D9BDC9AE69AC89ABE9A709A7A9AEC99C4
:10012000D29AA09AAA9AF09AFA9AFD99DA99049B1F
:10013000969A2D9BB49A8C9A849A2D9B2D9B2D9BDD
:10014000529A5C9A669A2D9B2D9B2D9B2D9B2D9BE5
:100150002D9BDC9AE69AC89ABE9A709A7A9AEC9984
:10016000D29AA09AAA9AF09AFA9AFD99DA99049BDF
:10017000969A2D9BB49A8C9A849A2D9B2D9B2D9B9D
:10018000529A5C9A669A23BD62BD34BD2DBD3ABDBC
:100190003EBD57BDC9E6CEE6D3E6DDE6E7E660E75D
:1001A000F1E6F9E601E70BE715E71FE72EE738E789
:1001B00060E742E74CE756E782E785E774E778E7D0
:1001C0007EE7BCE789E78DE793E797E79BE7A1E741
:1001D000A5E7A9E7BCE7AFE7B3E7B7E7084AD73B2E
:1001E0003BCE016E84BCBFFDC12F3D6C74319ABD06
:1001F00056833DDA3D00C77F11BED9E4BB4C3E912A
:100200006BAAAABE000000803F05A84CCDB2D44E18
:10021000B93836A9020C50B9918688083CA6AAAA1A
:100220002ABE000000803F004A616D20636F6E743B
:10023000726F6C2064697361626C65643A004A6134
:100240006D20646562756767696E673A00436F6C1D
:100250006420657874727573696F6E206469736168
:100260006C6C6F77656400436F6C642065787472A2
:100270007573696F6E20616C6C6F77656400417592
:10028000746F726574726163743A00546573746953
:100290006E6720666174616C206572726F720053C4
:1002A0006574204D6963726F7374657070696E67F1
:1002B0000054726967676572696E6720776174635D
:1002C00068646F672E204966206163746976617483
:1002D00065642C20746865207072696E7465722084
:1002E00077696C6C2072657365742E005761746356
:1002F00068646F672064697361626C656400207470
:100300006F200053657420766F6C756D657472692B
:100310006320657874727573696F6E20666F7220E2
:100320006578747275646572200044697361626CEB
:10033000656420766F6C756D65747269632065788D
:1003400074727573696F6E20666F7220657874724F
:100350007564657220004D313134200050696E2083
:1003600063616E206E6F7420626520736574206215
:1003700079204D34322C20697320696E2073656EAC
:100380007369746976652070696E73212000496C09
:100390006C6567616C20532076616C756520666FB3
:1003A00072204D34320052656C617469766520703C
:1003B0006F736974696F6E696E67004162736F6C09
:1003C00075746520706F736974696F6E696E67000C
:1003D000000119171B16181F211D1A1C2527231E83
:1003E00020FFFF05062B2D290809355072696E7410
:1003F00065724D6F64653A434E43005072696E7486
:1004000065724D6F64653A4C617365720050726934
:100410006E7465724D6F64653A4646460045787461
:10042000722E00436F6E6669673A0052657472619E
:100430006374696F6E20756E646F20737065656498
:1004400000457874726120657874727573696F6E97
:10045000206F6E20756E646F2072657472616374B4
:10046000205B6D6D5D0052657472616374696F6EBF
:10047000207A2D6C696674205B6D6D5D0052657429
:1004800072616374696F6E207370656564205B6D63
:100490006D2F735D0052657472616374696F6E20B5
:1004A0006C656E677468205B6D6D5D00456E6162A2
:1004B0006C652072657472616374696F6E20636F1E
:1004C0006E76657273696F6E205B302F315D004F01
:1004D0006E6520686561746572207365656D732053
:1004E0006465636F75706C65642066726F6D2074EF
:1004F0006865726D6973746F72202D206469736111
:10050000626C696E6720616C6C20666F722073612B
:10051000666574792100486561746572206465635D
:100520006F75706C6564004372656174696F6E20ED
:100530006661696C6564004469726563746F7279A1
:1005400020637265617465640044656C6574696FED
:100550006E206661696C65640046696C652064653F
:100560006C6574656400446F6E6520736176696EB6
:10057000672066696C652E0057726974696E672022
:10058000746F2066696C653A20006F70656E206636
:1005900061696C65642C2046696C653A20004E6F79
:1005A00074205344207072696E74696E67005344FE
:1005B000207072696E74696E6720627974652000BC
:1005C00066696C652E6F70656E206661696C656426
:1005D0000046696C652073656C6563746564002012
:1005E00053697A653A0046696C65206F70656E657F
:1005F000643A00456E642066696C65206C697374AA
:1006000000426567696E2066696C65206C69737469
:10061000006572726F722077726974696E672074F8
:100620006F2066696C6500534420696E69742066AA
:1006300061696C00657874727564657220636F6FB0
:100640006C6572207370656564205B302D323535C2
:100650005D0064697374616E636520746F207265F8
:100660007472616374207768656E2068656174696F
:100670006E67205B6D6D5D0074656D702E20666F1A
:10068000722072657472616374696F6E2077686539
:100690006E2068656174696E67205B435D007465F8
:1006A0006D702E2073746162696C697A652074695B
:1006B0006D65205B735D005A2D6F666673657420EF
:1006C0005B73746570735D00592D6F666673657436
:1006D000205B73746570735D00582D6F666673657B
:1006E00074205B73746570735D00504944206D61C4
:1006F000782076616C7565205B302D3235355D0074
:1007000050494420442D6761696E00504944204996
:100710002D6761696E0050494420502D6761696EF4
:100720002F646561642D74696D65005049442064CF
:1007300072697665206D696E005049442064726963
:100740007665206D61780068656174206D616E6109
:10075000676572205B302D335D00616363656C6596
:10076000726174696F6E205B6D6D2F735E325D0018
:100770007374617274206665656472617465205B70
:100780006D6D2F735D006D61782E206665656472F6
:10079000617465205B6D6D2F735D0073746570739C
:1007A00020706572206D6D004265642050494420C0
:1007B0006D61782076616C7565205B302D32353542
:1007C0005D004265642050494420442D6761696E94
:1007D000004265642050494420492D6761696E00DC
:1007E0004265642050494420502D6761696E004283
:1007F000656420504944206472697665206D696E95
:100800000042656420504944206472697665206D19
:100810006178004265642048656174204D616E61B5
:10082000676572205B302D335D005A2D61786973E6
:100830002074726176656C20616363656C657261BA
:1008400074696F6E205B6D6D2F735E325D00592D84
:10085000617869732074726176656C206163636589
:100860006C65726174696F6E205B6D6D2F735E32A3
:100870005D00582D617869732074726176656C2013
:10088000616363656C65726174696F6E205B6D6D29
:100890002F735E325D005A2D617869732061636346
:1008A000656C65726174696F6E205B6D6D2F735E30
:1008B000325D00592D6178697320616363656C65F1
:1008C000726174696F6E205B6D6D2F735E325D00B7
:1008D000582D6178697320616363656C657261741A
:1008E000696F6E205B6D6D2F735E325D005A2D61F6
:1008F00078697320686F6D696E67206665656472DC
:10090000617465205B6D6D2F735D00592D61786991
:100910007320686F6D696E672066656564726174C7
:1009200065205B6D6D2F735D00582D6178697320B4
:10093000686F6D696E6720666565647261746520B5
:100940005B6D6D2F735D005A2D61786973206D6149
:10095000782E206665656472617465205B6D6D2F0D
:10096000735D00592D61786973206D61782E206662
:1009700065656472617465205B6D6D2F735D0058F1
:100980002D61786973206D61782E206665656472CB
:10099000617465205B6D6D2F735D005A2D61786900
:1009A0007320737465707320706572206D6D0059CB
:1009B0002D6178697320737465707320706572207F
:1009C0006D6D00582D6178697320737465707320A4
:1009D000706572206D6D004D61782E205A2D6A650C
:1009E000726B205B6D6D2F735D004D61782E206AF8
:1009F00065726B205B6D6D2F735D005A206D6178A1
:100A0000206C656E677468205B6D6D5D0059206DAC
:100A10006178206C656E677468205B6D6D5D005851
:100A2000206D6178206C656E677468205B6D6D5D0C
:100A3000005A206D696E20706F73205B6D6D5D00D4
:100A400059206D696E20706F73205B6D6D5D00586D
:100A5000206D696E20706F73205B6D6D5D00537447
:100A60006F70207374657070657220616674657252
:100A700020696E6163746976697479205B6D732C8B
:100A8000303D6F66665D004D61782E20696E616352
:100A9000746976652074696D65205B6D732C303DDB
:100AA0006F66665D005072696E7465722061637472
:100AB000697665205B735D0046696C616D656E7477
:100AC000207072696E746564205B6D5D004C616EB0
:100AD00067756167650042617564726174650045A0
:100AE00050523A3320004550523A3220004550527D
:100AF0003A3120004550523A30200050726F746FE6
:100B0000636F6C2076657273696F6E206368616EC7
:100B10006765642C20757067726164696E67004355
:100B20006F6E66696775726174696F6E2072657346
:100B3000657420746F2064656661756C74732E0033
:100B4000436F6E66696775726174696F6E206C6F52
:100B5000616465642066726F6D20454550524F4D4B
:100B60002E00436F6E66696775726174696F6E20DF
:100B700073746F72656420746F20454550524F4DF9
:100B80002E00436F6174696E6720746869636B6ED1
:100B9000657373205B6D6D5D0077616974005072E1
:100BA000696E7465722073657420696E746F206459
:100BB00072792072756E206D6F646520756E746930
:100BC0006C207265737461727421003A20776F72C1
:100BD0006B696E67003A2074656D702073656E7383
:100BE0006F7220646566656374006865617465642E
:100BF0002062656400504944204175746F74756EBD
:100C0000652066696E6973686564202120506C6197
:100C1000636520746865204B702C204B6920616EE1
:100C200064204B6420636F6E7374616E747320690B
:100C30006E2074686520436F6E66696775726174B3
:100C4000696F6E2E68206F7220454550524F4D00DF
:100C5000504944204175746F74756E6520666169F2
:100C60006C6564212074696D656F7574005049442A
:100C7000204175746F74756E65206661696C65647A
:100C8000212054656D706572617475726520746F92
:100C90006F206869676800204B643A2000204B6928
:100CA0003A2000204B703A200020436C6173736936
:100CB0006320504944002054753A2000204B753A77
:100CC0002000206D61783A2000206D696E3A200086
:100CD00020643A200020626961733A200050494440
:100CE000204175746F74756E652073746172740041
:100CF0005461726765744265643A00546172676555
:100D00007445787472002F2F20616374696F6E3A96
:100D1000726573756D65002F2F20616374696F6E46
:100D20003A706175736500205A4A65726B3A004AE1
:100D300065726B3A007A5F6D696E3A00795F6D6932
:100D40006E3A00785F6D696E3A004C2000482000D2
:100D5000206973200020746F2000536574206F7524
:100D6000747075743A20002000496E76616C696475
:100D70002061726300206D696E0020686F75727368
:100D80002000206461797320006D20005072696E2C
:100D900074696E672074696D653A005072696E748B
:100DA00065642066696C616D656E743A0046616EBB
:100DB00073706565643A00466C6F774D756C746945
:100DC000706C793A0053706565644D756C74697028
:100DD0006C793A00666174616C3A00202F002F0034
:100DE0003A0020524157002042403A0020403A0049
:100DF00020423A00543A0020453A00205A3A002056
:100E0000593A00583A00467265652052414D3A0001
:100E1000556E6B6E6F776E20636F6D6D616E643AA9
:100E200000536F6674776172652052657365740054
:100E30005761746368646F6720526573657400421C
:100E4000726F776E206F75742052657365740045FC
:100E5000787465726E616C20526573657400506FB2
:100E6000776572557000737461727400736B69708A
:100E7000200020676F7420004572726F723A6578A7
:100E8000706563746564206C696E6520005344204E
:100E900072656164206572726F7200205200204A90
:100EA000002049002050002053002046002045002B
:100EB000205A00205900205800446F6E652070723F
:100EC000696E74696E672066696C6500466F726D45
:100ED0006174206572726F720057726F6E67206363
:100EE0006865636B73756D006F6B20004563686F99
:100EF0003A00526573656E643A00496E666F3A0057
:100F00004572726F723A00494E46004E414E006F74
:100F10006B004649524D574152455F4E414D453A4F
:100F200052657065746965725F302E39322E3920D2
:100F30004649524D574152455F55524C3A68747478
:100F400070733A2F2F6769746875622E636F6D2F07
:100F500072657065746965722F5265706574696534
:100F6000722D4669726D776172652F2050524F5411
:100F70004F434F4C5F56455253494F4E3A312E30F6
:100F8000204D414348494E455F545950453A4D65BF
:100F90006E64656C2045585452554445525F434F2A
:100FA000554E543A312052455045544945525F50B0
:100FB000524F544F434F4C3A3300206D61726B6572
:100FC00064206465636F75706C656400206D617288
:100FD0006B656420646566656374004F7468657250
:100FE0003A0053656C656374457874727564657214
:100FF0003A0044697361626C696E6720616C6C20B1
:10100000686561746572732064756520746F20640F
:10101000657465637465642073656E736F722064B4
:1010200065666563742E00206465672E204300208A
:101030006D6561737572656420004572726F723AF6
:10104000436F756C64206E6F7420686F6C642074DD
:10105000656D70657261747572652000206D730036
:1010600020616674657220004572726F723A546531
:101070006D702E2072616973656420746F20736CCB
:101080006F772E2052697365203D2000486561749A
:1010900065642062656420657863656564656420C5
:1010A0006D61782074656D7065726174757265210B
:1010B0000000001C151C140000002243141F1F1305
:1010C0002ED1157D150D15BD140000000000003552
:1010D000142913D9125D12E1119511DD100400508D
:1010E0001D7C00D009A4001009CC008008F4001079
:1010F000081C01B807440168076C0128079401E83F
:1011000006BC01B806E40188060C02600634023809
:10111000065C0218068402F005AC02D805D402B8B9
:1011200005FC0298052403800574035005C40328B8
:1011300005140400056404D804B404B0042C05802C
:1011400004A40558041C062804940600040C07D8BF
:1011500003AC07A8034C087803EC0848038C09206B
:1011600003A40AD0021C0BA802AC0C2802FC0C0839
:1011700002C40DB801140E9801B40E38012C0FE012
:1011800000540FB8007C0F8800A40F4800F40F280B
:10119000FFFC0FC0F9000000008C030800AE0350F4
:1011A00000D603A000F703F00018044001380490B3
:1011B000015904E0017A0430029A048002BB04D091
:1011C00002FC0470032605C003860630079709A0B9
:1011D0000F750D201C520E401F1F0F6022FF0F8045
:1011E0003E0400081D900058091C01B007A801C862
:1011F0000634023006C002C0054C036805D8031847
:10120000056404D004F00498047C056004080630EA
:1012100004940600042007D003AC07A80338088014
:1012200003C408580350093003DC090803680AD8CE
:1012300002F40AB002800B88020C0C6002980C3099
:1012400002240DF801B00DC0013C0E8001C80E3023
:1012500001540FB800B40F2800E00F000004004054
:101260001D900060091C01B007A801D006340238A7
:1012700006C002C8054C036805D80318056404D8E5
:1012800004F00498047C0560040806300494060009
:10129000042007D003AC07A80338088003C408580B
:1012A0000350093003DC090803680AE002F40AB8B5
:1012B00002800B88020C0C6002980C3002240DF89E
:1012C00001B00DC0013C0E8001C80E3001540FB8B2
:1012D00000B40F2800E00F000004000016D800C082
:1012E00006AC0178058002C004540348042804E8D1
:1012F00003FC049803D0055003A40618037807D80C
:10130000024C08A80220097002F4093802C80A0831
:10131000029C0BD001700C9001440D5001180EF886
:1013200000EC0E8800C00F00000400681D4C005047
:101330000B94005809DC0050082401A8076C012810
:1013400007B401C006FC017006440228068C02F0B6
:1013500005D402B8051C03880564035805AC0330A6
:1013600005F40310053C04E8048404C804CC04A874
:1013700004140590045C057004A4055804EC0538B9
:1013800004340620047C060804C406F0030C07D8C5
:10139000035407C8039C07B003E40798032C088094
:1013A0000374087003BC085803040948034C09304F
:1013B0000394091803DC090803240AF0026C0AE00C
:1013C00002B40AC802FC0AB002440BA0028C0B88CB
:1013D00002D40B70021C0C5802640C4002AC0C28A6
:1013E00002F40C10023C0DF001840DD801CC0DB8B4
:1013F00001140E98015C0E7001A40E4801EC0E1849
:1014000001340FD8007C0F8800C40F0800FC0F00C7
:1014100000000000000000000000000000000000CC
:1014200000000000000000000000000000000000BC
:1014300000000000000000401F450060094F001040
:10144000095C00C0086B0070087D0020089200D085
:1014500007AC008007CC003007DE00E006230190D7
:10146000065E014006A601F005FF01A0056D0250D1
:1014700005F30200059603B0045A04600440051009
:10148000044806C0036E077003A8082003EB09D0C8
:1014900002230B8002410C3002390DE001040E9052
:1014A00001A20E4001170FF000690FA000A20F501B
:1014B00000C60F0000DD0FB0FFEB0F60FF040070EF
:1014C0000DD8004804AC0158038002D802540380B0
:1014D0000228043802FC040002D005C801A40698C2
:1014E00001780770014C08480120091801F409F03F
:1014F00000C80AC8009C0BA000700C7000440D3896
:1015000000180E0000EC0EA8FFC00FE8FE0400005B
:101510001B54006009640010097400C00884007046
:10152000089C002008B800D007D8008007000130D0
:10153000072C01E00668019006AC0140060002F0AD
:10154000056802A005E0025005740300052404B0FC
:1015500004F0046004DC051004E406C00304087011
:101560000330092003780B8002600DE001A80E40D3
:1015700001680FA000C00F0000E80F60FF040080AA
:101580001AD8009808AC012007800250065403C8FE
:101590000528045805FC040005D005B004A406681D
:1015A00004780728044C08E8032009B003F4097004
:1015B00003C80A38039C0BF802700CB002440D6893
:1015C00002180E0802EC0E8801C00F8800F00F0010
:1015D000000000A00F5C006009690010097900C0DC
:1015E000088C007008A2002008BD00D007DE008033
:1015F00007050130073401E0066D019006B2014095
:10160000060702F0056D02A005E80250057B030005
:10161000052B04B004F8046004EB06C00335092070
:10162000037F0B8002650DE001B00E40011D0FF03D
:1016300000480FC8006C0FA000ED0F60FFFE0F48C0
:10164000FE0809000000000000000000000000008B
:1016500000000024F403D950C38EB1C2A23D96828B
:101660008B3582127AE372816CCB66A861015DC70B
:1016700058EB546151204E1E4B5648C14559431AF0
:1016800041013F093D2F3B7139CD374036C93465A3
:10169000331432D430A32F802E6B2D632C672B751F
:1016A0002A8E29B028DC2710274B268F25D9242BFA
:1016B000248223E0224322AC211A218D20042080A1
:1016C0001F001F841E0C1E971D261DB81C4E1CE6F5
:1016D0001B821B201BC11A641A0A1AB2195D190A4F
:1016E00019B9186A181C18D11788174017FA16B5B7
:1016F0001673163116F115B31576153A150015C780
:10170000148F1458142214EE13BA13881356132589
:1017100013F612C71299126C1240121512EB11C176
:10172000119811701148112111FB10D610B1108DB4
:10173000106910461024100210E10FC00FA00F8096
:101740000F610F420F230F060FE80ECB0EAF0E9363
:101750000E770E5C0E410E270E0D0EF30DDA0DC145
:101760000DA80D900D780D600D490D320D1B0D0566
:101770000DEF0CD90CC30CAE0C990C850C700C5CE5
:101780000C480C350C210C0E0CFB0BE80BD60BC4D3
:101790000BB20BA00B8E0B7D0B6B0B5A0B4A0B394C
:1017A0000B290B180B080BF80AE90AD90ACA0ABB5D
:1017B0000AAC0A9D0A8E0A800A710A630A550A4712
:1017C0000A390A2C0A1E0A110A040AF709EA09DD75
:1017D00009D009C409B709AB099F09920987097B98
:1017E000096F09630958094C09410936092B092079
:1017F0000915090A090009F508EB08E008D608CC24
:1018000008C208B808AE08A4089A08900887087D9E
:101810000874086B08610858084F0846083D0834EA
:10182000082C0823081A08120809080108F807F00C
:1018300007E807E007D807D007C807C007B807B010
:1018400007A807A1070000420FA1071605D0030D46
:10185000038B022E02E801B2018601630145012CCF
:101860000117010401F4004D617854656D703A0070
:101870004469616D657465723A00416363656C65C6
:10188000726174696F6E3A004D617853706565647A
:101890003A004A65726B3A004D617842656454655E
:1018A0006D703A005072696E746572547970653A61
:1018B00043617274657369616E005A547261766532
:1018C0006C416363656C3A005954726176656C4192
:1018D0006363656C3A005854726176656C4163636A
:1018E000656C3A005A5072696E74416363656C3A74
:1018F00000595072696E74416363656C3A005850C8
:1019000072696E74416363656C3A005A53697A6513
:101910003A005953697A653A005853697A653A0032
:101920005A4D61783A00594D61783A00584D6178C6
:101930003A005A4D696E3A00594D696E3A00584D59
:10194000696E3A0052657472616374696F6E556EA8
:10195000646F53706565643A0052657472616374B4
:10196000696F6E556E646F45787472614C6F6E6707
:101970004C656E6774683A0052657472616374698D
:101980006F6E556E646F45787472614C656E6774E6
:10199000683A0052657472616374696F6E5A4C697B
:1019A00066743A0052657472616374696F6E537045
:1019B0006565643A0052657472616374696F6E4C58
:1019C0006F6E674C656E6774683A00526574726139
:1019D0006374696F6E4C656E6774683A004A65722D
:1019E0006B5A3A004A65726B58593A005072696EE8
:1019F000746C696E6543616368653A004545505291
:101A00004F4D3A004175746F6C6576656C3A005ABB
:101A100050726F62653A00436173654C6967687420
:101A2000733A00537570706F72744C6F63616C46DB
:101A3000696C616D656E746368616E67653A0053C9
:101A40007570706F72744731304731313A005A48BF
:101A50006F6D654469723A0059486F6D65446972EB
:101A60003A0058486F6D654469723A00536F667466
:101A700077617265506F7765725377697463683AFE
:101A8000004C43443A0046616E323A300046616E83
:101A90003A005344436172643A0048656174656476
:101AA0004265643A004D6978696E6745787472756D
:101AB0006465723A004E756D45787472756465722E
:101AC0003A00496E7075744275666665723A0042F6
:101AD000617564726174653A004E6F20636173656D
:101AE000206C696768747300686F6D65417869730D
:101AF00020004E65656473206C616E677561676573
:101B00002073656C656374696F6E00446562756708
:101B10004C6576656C3A00656E6473746F70732003
:101B20006869743A20004739310A4731205A323BFC
:101B30000A473238205830005344207072696E745E
:101B40002073746F7070656420627920757365729C
:101B50002E004731205A323B0A473930004739318D
:101B60003B0A4731205A323B005344206361726480
:101B700020696E73657274656400534420636172FA
:101B8000642072656D6F766564000000211042204C
:101B900063308440A550C660E770088129914AA14E
:101BA0006BB18CC1ADD1CEE1EFF1311210027332C5
:101BB0005222B5529442F772D662399318837BB39E
:101BC0005AA3BDD39CC3FFF3DEE362244334200455
:101BD0000114E664C774A44485546AA54BB52885EE
:101BE0000995EEE5CFF5ACC58DD5533672261116A5
:101BF0003006D776F6669556B4465BB77AA719973E
:101C00003887DFF7FEE79DD7BCC7C448E55886682C
:101C1000A7784008611802282338CCC9EDD98EE98D
:101C2000AFF9488969990AA92BB9F55AD44AB77A04
:101C3000966A711A500A333A122AFDDBDCCBBFFBDD
:101C40009EEB799B588B3BBB1AABA66C877CE44C14
:101C5000C55C222C033C600C411CAEED8FFDECCD2D
:101C6000CDDD2AAD0BBD688D499D977EB66ED55EE4
:101C7000F44E133E322E511E700E9FFFBEEFDDDF7D
:101C8000FCCF1BBF3AAF599F788F8891A981CAB109
:101C9000EBA10CD12DC14EF16FE18010A100C2303B
:101CA000E3200450254046706760B9839893FBA3F6
:101CB000DAB33DC31CD37FE35EF3B1029012F3228B
:101CC000D2323542145277625672EAB5CBA5A89546
:101CD00089856EF54FE52CD50DC5E234C324A014DB
:101CE00081046674476424540544DBA7FAB79987D6
:101CF000B8975FE77EF71DC73CD7D326F23691062B
:101D0000B01657667676154634564CD96DC90EF91D
:101D10002FE9C899E9898AB9ABA94458654806787A
:101D20002768C018E1088238A3287DCB5CDB3FEB35
:101D30001EFBF98BD89BBBAB9ABB754A545A376ACA
:101D4000167AF10AD01AB32A923A2EFD0FED6CDD05
:101D50004DCDAABD8BADE89DC98D267C076C645C1A
:101D6000454CA23C832CE01CC10C1FEF3EFF5DCF15
:101D70007CDF9BAFBABFD98FF89F176E367E554E6A
:101D8000745E932EB23ED10EF01E7C3C3E5E2B3D27
:101D90003F2F5B5D3B2C2A225C00696E666F3A43E5
:101DA0006F6E74696E75652066726F6D2066617402
:101DB000616C2073746174650000205072696E74E8
:101DC00065722073746F7070656420616E64206842
:101DD0006561746572732064697361626C65642007
:101DE00064756520746F2074686973206572726F02
:101DF000722E20466978206572726F7220616E645F
:101E000020726573746172742077697468204D392B
:101E100039392E005344206572726F7220666978DA
:101E20006564005344206572726F72206469642097
:101E30006E6F74207265636F766572210053442063
:101E400052656164204572726F72004D69737369E7
:101E50006E67206C696E656E756D626572005265A5
:101E6000717565737450617573653A00696D706F53
:101E70007274616E743A2046696C616D656E74208F
:101E80006368616E6765207265717569726564214A
:101E90000055495F414354494F4E5F484F4D455FA0
:101EA0005A200055495F414354494F4E5F484F4DBA
:101EB000455F59200055495F414354494F4E5F48A3
:101EC0004F4D455F58200055495F414354494F4E9F
:101ED0005F484F4D45414C4C200055495F414354AC
:101EE000494F4E5F45504F534954494F4E2000557E
:101EF000495F414354494F4E5F5A504F53495449EB
:101F00004F4E5F46415354200055495F4143544969
:101F10004F4E5F59504F534954494F4E5F464153BE
:101F200054200055495F414354494F4E5F58504F2C
:101F3000534954494F4E5F46415354200055495F21
:101F4000414354494F4E5F5A504F534954494F4EA5
:101F5000200055495F414354494F4E5F59504F53FC
:101F60004954494F4E200055495F414354494F4E13
:101F70005F58504F534954494F4E200020646563C9
:101F8000200020646566200058696C6958205465FB
:101F900063680057616E68616F20443553004D617E
:101FA0006368696E653A0056657220302E39322EAC
:101FB0003900526570657469657200043DD13C0456
:101FC0000003000000003FCDCC4C3D0AD7A33B6F7F
:101FD00012033A00000000000000000000000000B2
:101FE000000000000001FFFF00000000000780006B
:101FF000FFFE0000003800000007800000C3E1F091
:102000007F0FC000071F87C1FC3FC00038FFFFFFE4
:10201000F0FE4001C3FFFFFFC1FC400F00000000C5
:1020200007F0403FFFFF80001FE0403FFFFFFFFF42
:10203000FF80403FFFFFFFFFFF00403FFFFFFFFF2C
:10204000FE004030000001FFFC04403000000000B2
:10205000FC0C403000000000381C40300000000044
:10206000383E403000000000387E4030FFFF8000E6
:1020700038FE4030FFFFF80038FE4030FFFFFE0022
:1020800038E64030FFFFFF0038E64030FFFFFF80BA
:1020900038C64030FFFFFF8038C64030FFBFFF80AA
:1020A00038C44030FF80FFC038C44030FF80FFC0DC
:1020B00038C44030FF807FC038CC4030FF807FC0C4
:1020C00038FC4030FF807FC038F84030FF80FFC0D0
:1020D00038F84030FFFFFFC038F04030FFFFFF808E
:1020E00038E04030FFFFFF8038E04030FFFFFF0066
:1020F00038C04030FFFFFE0038C04030FFFFF00026
:1021000038C04030FF9FF00038C04030FF8FFC00E7
:1021100038C04030FF87FC0038C04030FF87FE00E9
:1021200038C04030FF83FF0038C08030FF83FF009D
:1021300038C08030FF81FF8038C10030FF81FF80D0
:1021400038C20030FF80FFC038820030FF80FFC0FF
:1021500038840030FF807FE0380800307F807FE0E7
:10216000380800300F803FE03810003000003FF0AA
:1021700038100038000003F038200038000000005C
:102180003840003C000000003840003FF8000000EC
:102190003980003FFFF800003D000000FFFFF8001D
:1021A0007F00000007FFFFF87E0000000007FFFF30
:1021B000FC000000000003FFF80000000000000D1C
:1021C000F800000000000000000000000000000017
:1021D000000000FFD0FFE0FFCFFF64FFD1FF3238E7
:1021E0000C060201FF64FFD0FFFE00070A00FE0795
:1021F000026903FB00FFFE08FE07FE050707060055
:1022000000A80088008800A8050808060000080843
:10221000082848F8402003030306010440A04005B5
:102220000505060000F8F8F8F8F8050505060000B1
:10223000F8888888F805080806000020505050707B
:10224000F8F8700705050900001CFE8282FE0508EB
:102250000806000088502088205088880608080654
:102260000000489048FCFC78303006080806000062
:10227000244824FCFC783030060505060000FCFCF0
:10228000783030060202060000FCFC060606060056
:102290000048904890FCFC060606060000244824EE
:1022A00048FCFC07070707000082443828384482AE
:1022B000070707070000101038EE381010FFFFFF67
:1022C000FFFFFFFFFFFFFFFFFFFFFFFFFF0000001B
:1022D0000605FF01070706020080808080800080DD
:1022E000030303060104A0A0A00507070600005091
:1022F00050F850F850500507070600002070A070F5
:1023000028702006080806000044A44810204894BD
:102310008805070706000040A0A040A890680103B8
:102320000306020480808003070706010020408026
:1023300080804020030707060100804020202040C5
:10234000800505050600018850F85088050505063A
:1023500000012020F820200303030601FF604080D5
:10236000040101060103F00202020601FFC0C005DC
:1023700007070600000808102040808005070706B0
:10238000000020508888885020050707060000209C
:1023900060A0202020F8050707060000708808309C
:1023A0004080F8050707060000F80810300888701C
:1023B00005070706000010305090F81010050707B9
:1023C000060000F880B0C8088870050707060000FE
:1023D000304080B0C88870050707060000F8081074
:1023E0001020404005070706000070888870888824
:1023F00070050707060000708898680810600205DD
:1024000005060201C0C000C0C00307070601FF4067
:10241000E040006040800407070601001020408073
:10242000402010050303060002F800F80407070621
:102430000100804020102040800507070600007042
:10244000881020200020050707060000708898A843
:10245000B0807005070706000020508888F888883B
:10246000050707060000F04848704848F0050707D0
:1024700006000070888080808870050707060000CD
:10248000F04848484848F0050707060000F88080F3
:10249000F08080F8050707060000F88080F0808053
:1024A00080050707060000708880809888700507FF
:1024B00007060000888888F88888880307070601CF
:1024C00000E04040404040E00507070600003810AB
:1024D00010101090600507070600008890A0C0A0AB
:1024E0009088050707060000808080808080F805BE
:1024F00007070600008888D8A88888880507070687
:1025000000008888C8A8988888050707060000701A
:10251000888888888870050707060000F08888F09A
:102520008080800508080600FF7088888888A87069
:1025300008050707060000F08888F0A090880507C6
:10254000070600007088807008887005070706007D
:1025500000F820202020202005070706000088889A
:10256000888888887005070706000088888850508A
:102570005020050707060000888888A8A8D8880585
:10258000070706000088885020508888050707063E
:10259000000088885020202020050707060000F84A
:1025A0000810204080F8030707060100E0808080C3
:1025B0008080E005070706000080804020100808A2
:1025C000030707060100E02020202020E005030388
:1025D0000600042050880501010600FFF8020202EF
:1025E0000602068040050505060000700878887818
:1025F0000507070600008080B0C888C8B00505053B
:10260000060000708880887005070706000008082B
:1026100068988898680505050600007088F880703D
:10262000050707060000304840F040404005070716
:102630000600FE788888780888700507070600007D
:102640008080B0C88888880307070601004000C062
:10265000404040E00409090601FE1000301010104F
:1026600090906005070706000080808890E09088C1
:10267000030707060100C04040404040E005050553
:10268000060000D0A8A8A888050505060000B0C867
:102690008888880505050600007088888870050709
:1026A000070600FEB0C888C8B0808005070706008E
:1026B000FE68988898680808050505060000B0C8F7
:1026C00080808005050506000070807008F0050711
:1026D000070600004040F040404830050505060070
:1026E000008888889868050505060000888850508D
:1026F000200505050600008888A8A85005050506E0
:10270000000088502050880507070600FE8888983A
:1027100068088870050505060000F8102040F804D8
:102720000707060100304020C0204030010707069F
:10273000020080808080808080040707060100C03E
:102740002040304020C005030306000448A890FF45
:10275000FFFFFFFFFFFFFFFFFFFFFFFFFFFFFFFF89
:10276000FFFFFFFFFFFFFFFFFFFFFFFFFFFFFFFF79
:10277000FF01070706020080008080808080050737
:10278000070600FF2078A0A0A07820050707060014
:1027900000304840E04048B005050506000088705C
:1027A0005070880508080600FF88885020F820200F
:1027B00020010707060200808080008080800508D5
:1027C000080600FF7080E090483808700301010699
:1027D0000107A00507070600007088A8C8A8887030
:1027E0000406060601017090B05000F006050506CB
:1027F00000002448904824040202060102F010FF61
:102800000507070600007088E8C8C8887005010140
:10281000060007F803030306010440A0400506066E
:102820000600002020F82020F804050506010360BA
:10283000902040F0040505060103E0106010E0025E
:1028400002020602064080FF05070706000078E83E
:10285000E868282828010101060203800202020616
:1028600002FE408003050506010340C04040E0042D
:1028700006060601016090906000F006050506005E
:102880000090482448900609090600FF40C04040D7
:10289000E40C143C040609090600FF40C04040E86F
:1028A0001404081C0509090600FFC0204020C818B0
:1028B00028780805070706000020002020408870BF
:1028C0000508080600004020708888F888880508F8
:1028D000080600001020708888F888880508080617
:1028E00000002050708888F88888050808060000D5
:1028F00048B0708888F888880508080600005000ED
:10290000708888F8888805080806000020507088BC
:1029100088F888880607070600003C50909CF090D5
:102920009C0509090600FE70888080808870204020
:1029300005080806000040F88080F08080F805084F
:102940000806000010F88080F08080F8050808066E
:10295000000020F88080F08080F80508080600005C
:1029600050F88080F08080F803080806010080405D
:10297000E040404040E00308080601002040E040FD
:10298000404040E003080806010040A0E04040400D
:1029900040E0030808060100A000E040404040E09D
:1029A000050707060000F04848E84848F005080811
:1029B000060000285088C8A89888880508080600DE
:1029C000004020708888888870050808060000107C
:1029D00020708888888870050808060000205070DC
:1029E0008888888870050808060000285070888844
:1029F000888870050808060000500070888888885C
:102A00007005050506000088502050880507070658
:102A10000000709898A8C8C8700508080600004013
:102A2000208888888888700508080600001020889B
:102A3000888888887005080806000020500088886B
:102A400088887005080806000050008888888888F3
:102A500070050808060000102088885020202005F6
:102A6000070706000080F088F080808005070706D1
:102A70000000708890A09088B0050808060000400B
:102A800020007008788878050808060000102000EB
:102A90007008788878050808060000205000700843
:102AA00078887805080806000028500070087888A3
:102AB0007805070706000050007008788878050838
:102AC0000806000020502070087888780605050662
:102AD000000078147C907C0507070600FE70888053
:102AE000887020400508080600004020007088F823
:102AF00080700508080600001020007088F88070BB
:102B00000508080600002050007088F8807005074E
:102B10000706000050007088F8807003080806015E
:102B200000804000C0404040E0030808060100402B
:102B30008000C0404040E003080806010040A000BB
:102B4000C0404040E0030707060100A000C040402D
:102B500040E0050707060000C030708888887005CF
:102B60000808060000285000B0C8888888050808B2
:102B7000060000402000708888887005080806005C
:102B80000010200070888888700508080600002062
:102B900050007088888870050808060000285000DA
:102BA00070888888700507070600005000708888C4
:102BB00088700505050600012000F80020050505C0
:102BC0000600007898A8C8F0050808060000402014
:102BD000008888889868050808060000102000888A
:102BE00088889868050808060000205000888888B2
:102BF00098680507070600005000888888986805CF
:102C000009090600FE102088889868088870050861
:102C1000080600FE80F0888888F080800509090693
:102C200000FE50008888986808887000050700FF3B
:102C300006024803BA00FFFF08FF06FF0505050569
:102C40000000A8008800A805080806000008080879
:102C50002848F8402003030306010440A04005056E
:102C600005060000F8F8F8F8F8050505060000F874
:102C7000888888F80508080600002050505070F831
:102C8000F8700705050900001CFE8282FE05080891
:102C90000600008850208820508888060808060012
:102CA00000489048FCFC78303006080806000024F4
:102CB0004824FCFC783030060505060000FCFC7852
:102CC0003030060202060000FCFC06060606000084
:102CD00048904890FCFC060606060000244824485C
:102CE000FCFC0707070700008244382838448207A5
:102CF0000707070000101038EE381010FFFFFFFF25
:102D0000FFFFFFFFFFFFFFFFFFFFFFFF00000005CA
:102D10000400010606050200808080800080030315
:102D200003050103A0A0A005050505000050F8500B
:102D3000F85005050505000070A07028700406060F
:102D4000050000809020409010040505050000401B
:102D5000A040A05001030305020380808002060604
:102D60000501004080808080400206060501008049
:102D70004040404080030505050100A040E040A020
:102D80000505050500002020F820200303030501A8
:102D9000FF604080040101050002F002020205010B
:102DA00000C0C00404040500011020408003060692
:102DB00005010040A0A0A0A04003060605010040B8
:102DC000C0404040E004060605000060901020402E
:102DD000F0040606050000F010601090600406067E
:102DE0000500002060A0F02020040606050000F089
:102DF00080E01090600406060500006080E090907E
:102E000060040606050000F010202040400406067D
:102E10000500006090609090600406060500006068
:102E20009090701060020505050100C0C000C0C090
:102E30000306060500FF606000604080030505058D
:102E400001002040804020040303050001F000F051
:102E500003050505010080402040800306060501AA
:102E60000040A0204000400406060500006090B02D
:102E7000B08060040606050000609090F090900419
:102E80000606050000E090E09090E00406060500CC
:102E900000609080809060040606050000E090903D
:102EA0009090E0040606050000F080E08080F004C9
:102EB0000606050000F080E080808004060605001C
:102EC00000609080B090700406060500009090F0BD
:102ED000909090030606050100E040404040E00469
:102EE000060605000010101010906004060605008C
:102EF0000090A0C0C0A0900406060500008080805D
:102F00008080F004060605000090F0F09090900498
:102F1000060605000090D0D0B0B09004060605006B
:102F200000609090909060040606050000E090908C
:102F3000E080800407070500FF60909090D060104B
:102F4000040606050000E09090E0A0900406060547
:102F50000000609040209060030606050100E040FC
:102F6000404040400406060500009090909090601C
:102F70000406060500009090909060600406060527
:102F80000000909090F0F0900406060500009090EC
:102F900060609090030606050100A0A0A04040409C
:102FA000040606050000F010204080F00306060528
:102FB0000100E080808080E004040405000180407E
:102FC0002010030606050100E020202020E0030277
:102FD0000205010440A0040101050000F002020204
:102FE00005010480400404040500007090B0500402
:102FF00006060500008080E09090E00304040500D0
:10300000006080806004060605000010107090903B
:103010007004040405000060B0C0600406060500EA
:1030200000205040E040400405050500FF7090601E
:1030300080700406060500008080E09090900306F2
:10304000060501004000C04040E00307070501FFFE
:103050002000202020A0400406060500008080A05B
:10306000C0A090030606050100C040404040E004B7
:103070000404050000A0F09090040404050000E0A2
:103080009090900404040500006090906004050591
:103090000500FFE09090E0800405050500FF7090BA
:1030A000907010040404050000E090808004040483
:1030B00005000070C030E00406060500004040E056
:1030C0004040300404040500009090907003040414
:1030D000050100A0A0A0400404040500009090F0A9
:1030E000F0040404050000906060900405050500EC
:1030F000FF9090502040040404050000F02040F0B0
:103100000306060501002040C040402001060605D8
:1031100002008080808080800306060501008040D8
:103120006040408004020205000450A0FFFFFFFF42
:10313000FFFFFFFFFFFFFFFFFFFFFFFFFFFFFFFF9F
:10314000FFFFFFFFFFFFFFFFFFFFFFFFFF0000008C
:1031500005040001060605020080008080808004CE
:1031600006060500FF2070A0A070200405050500DC
:10317000003040E040B00505050500008870507043
:1031800088030606050100A0A040E04040010505B7
:1031900005020080800080800307070501FF608032
:1031A000C0A06020C0030101050105A005070705B7
:1031B00000FF7088A8C8A888700303030500036097
:1031C000A0600503030500014890480402020500C1
:1031D00001F010030101050102E00507070500FFEA
:1031E0007088E8C8C88870040101050005F0030371
:1031F0000305010340A0400506060500002020F855
:103200002020F8020404050102C04080C00204042A
:10321000050102C0C040C002020205010440800452
:1032200005050500FF909090E0800406060500006B
:1032300070D0D0505050020202050102C0C00202FC
:10324000020501FF408003040405010240C040E084
:1032500003030305000340A040050303050001909C
:1032600048900407070500FF8080809030701004AC
:1032700007070500FF808080B01020300407070595
:1032800000FFC0C040D030701003060605010040AA
:10329000004080A040040606050000609090F09079
:1032A00090040606050000609090F09090040606D9
:1032B000050000609090F090900406060500006004
:1032C0009090F09090040606050000906090F090B9
:1032D00090040606050000606090F09090040606D9
:1032E00005000070A0B0E0A0B00407070500FF6073
:1032F000908080906040040606050000F080E08029
:1033000080F0040606050000F080E08080F00406EE
:1033100006050000F080E08080F00406060500004D
:10332000F080E08080F0030606050100E0404040A8
:1033300040E0030606050100E040404040E003068F
:1033400006050100E040404040E00306060501009C
:10335000E040404040E0040606050000E050D05048
:1033600050E0040606050000B090D0B0B09004060E
:10337000060500006090909090600406060500002D
:103380006090909090600406060500006090909018
:10339000906004060605000060909090906004061E
:1033A0000605000090609090906004040405000001
:1033B0009060609004060605000070B0B0D0D0E0C8
:1033C00004060605000090909090906004060605A3
:1033D0000000909090909060040606050000909088
:1033E0009090906004060605000090009090906018
:1033F000030606050100A0A0A04040400406060503
:10340000000080E090E080800406060500006090E7
:10341000A09090A004060605000040207090B050D7
:1034200004060605000020407090B0500406060512
:10343000000020507090B05004060605000050A017
:103440007090B05004060605000050007090B05017
:1034500004060605000060607090B0500404040586
:10346000000070B0A0700305050501FF608080605A
:1034700040040606050000402060B0C06004060657
:10348000050000204060B0C0600406060500004052
:10349000A060B0C060040606050000A00060B0C0D7
:1034A000600306060501008040C04040E0030606B8
:1034B0000501004080C04040E003060605010040D1
:1034C000A0C04040E0030606050100A000C0404047
:1034D000E004060605000040306090906004060697
:1034E00005000050A0E09090900406060500004002
:1034F00020609090600406060500002040609090D7
:1035000060040606050000600060909060040606F6
:1035100005000050A0609090600406060500005071
:1035200000609090600405050500006000F00060F8
:1035300004040405000070B0D0E004060605000095
:103540004020909090700406060500002040909066
:1035500090700406060500006000909090700406CC
:10356000060500005000909090700407070500FFCA
:10357000204090905020400406060500FF80E09017
:1035800090E0800407070500FF5000909050204015
:103590008025000040380000004B000080700000D3
:1035A00000960000C0DA000000E10000002C0100DD
:1035B00008B2010000C2010000F401000084030011
:1035C00090D0030000E803000008070020A10700D6
:1035D00000100E0040420F0060E3160000000000E3
:1035E0000200000900E735C83C1D36183914360BB7
:1035F000365239D8380236F9350000022636000036
:103600000D00000002983800001100000002143A7A
:1036100000000F000000024B3A00000E0000000204
:10362000B13900000B0002000009002D36C83CAF84
:1036300036A33CA6369D3694368B368236793603D1
:1036400010270200463653364A36000000000000BC
:1036500000A80000000000000000A70003102702DF
:103660000063367036673600000000000000A600D8
:1036700000000000000000A5000000030704000097
:103680003B00000003060400003A00000002B836C8
:103690000000A200000002CF3600000F0000000270
:1036A000EC3700004E0000000237380000390000FF
:1036B0000002883700008A000200000800BF36C8F8
:1036C0003C40372E3725371C3713370A3737370238
:1036D00000001100D636C83C7F3776376D37643727
:1036E0005B374937523740372E3725371C3713376A
:1036F0000A370137F83637370000042604400096B1
:10370000000000042204400095000000042604206C
:10371000009A000000042504200099000000042401
:1037200004200098000000042304200097000000FB
:10373000042204200094000000042F0400009B00D9
:103740000000042D04000093000000044D0400005C
:10375000BC000000044C040000BB000000042E0468
:10376000000090000000042A0400008F0000000404
:103770002B0400008E000000042C0400008D0000CB
:103780000004290400008C0002000004008F37C8E8
:103790003CA937A0379737000002B23700008700F6
:1037A000000002CF37000084000000041004000075
:1037B0008B000358040200B937C637BD370000003C
:1037C00000000000890000000000000000880003E5
:1037D00020040200D637E337DA370000000000008B
:1037E00000860000000000000000850002000007C5
:1037F00000F337C83C2E3825381C3813380A3801F6
:1038000038000004130400005500000004120400F6
:1038100000540000000411040000530000000416CE
:1038200004000051000000041504000050000000D6
:1038300004140400004F0002000009003E38C83C98
:103840008F3886387D3874386B386238593850383C
:103850000000040F04000038000000040E04000003
:1038600037000000040D04000035000000040C04C3
:10387000000034000000040B0400003300000004CA
:103880000A040000310000000409040000300000B8
:103890000004080400002F0002000006009F38C842
:1038A0003CCF38C638BD38B438AB3800000382048A
:1038B00000000A01000003810400003F0000000333
:1038C000800400003E000000037F0400003D000073
:1038D00000037E0400003C00000002E138000010FC
:1038E000000200000600E838C83C18390F390639D4
:1038F000FD38F438000003F40301024D000000021B
:103900002A390200C900000003F70304004A00003E
:103910000003F60302044900000003F50301024816
:103920000001000001002839C83C020000030031FA
:103930003949394039373900000354240200030063
:10394000000003E803000004000000010000000084
:10395000C9000000025B3900007D00020000080081
:103960006239C83CA8399F3996398D3984397B39F9
:103970007239000003B4040000D2000000031E04EA
:10398000000083000000031D04000082000000030B
:103990001C04000081000000031B040000800000E4
:1039A00000031A0408007F00000004520400007E97
:1039B000000200000A00B839C83CF93ADE39D539AE
:1039C000CC390B3A023AF939F039E739000003886B
:1039D000130000CB0000000448040000B100000008
:1039E000041F040000B000000003430400101C008A
:1039F000000003310400101B000000033804000025
:103A00001A000000034704000018000000033704F8
:103A10000000170002000006001B3AC83C393A4279
:103A20003A303ABA3A273A000003440400002E0024
:103A30000000033A040000280000000461040000B4
:103A400024000000046204000025000200000D00B4
:103A5000523AC83CF93AF03AE73ADE3AB13AD53A46
:103A6000A83ACC3A9F3AC33ABA3A6C3A0000027587
:103A70003A0000060102000004007C3AC83C963A75
:103A80008D3A843A000004B60F00000901000004DA
:103A9000B50F00000801000004B40F00000701008A
:103AA0000002353B00002200000002683B000020BD
:103AB000000000029B3B00001E00000002023B00D1
:103AC000002300000002CE3B0000210000000201A4
:103AD0003C00001F00000002343C00001D000000FC
:103AE00003000400101600000003FF03001015007F
:103AF000000003FE0300101400000003FD0300108B
:103B0000130003F0030400093B2C3B233B1A3B1139
:103B10003B00000000000000F20000000000000078
:103B200000AB00000000000000007000000000007A
:103B30000000006F0003FC0304003C3B5F3B563B6E
:103B40004D3B443B000000000000006E0000000000
:103B5000000000006D00000000000000006C00008C
:103B60000000000000006B0003FB0304006F3B92A9
:103B70003B893B803B773B000000000000006A006F
:103B800000000000000000690000000000000000CC
:103B9000680000000000000000670003FA03040052
:103BA000A23BC53BBC3BB33BAA3B0000000000006E
:103BB000006600000000000000006500000000003A
:103BC000000000640000000000000000630003EF3C
:103BD000030400D53BF83BEF3BE63BDD3B00000038
:103BE0000000000062000000000000000061000012
:103BF0000000000000006000000000000000005F06
:103C00000003EE030400083C2B3C223C193C103C12
:103C1000000000000000005E000000000000000046
:103C20005D00000000000000005C000000000000DB
:103C300000005B0003ED0304003B3C5E3C553C4C44
:103C40003C433C000000000000005A00000000005F
:103C500000000059000000000000000058000000B3
:103C60000000000000570005881304006E3C913CE2
:103C7000883C7F3C763C00000000000000CF000044
:103C8000000000000000CE0000000000000000CD99
:103C90000000000000000000CC008200000100A134
:103CA0003CB73C000002AC3C0000E4000200000213
:103CB00000B33CC83CB73CC03C03A4260000000055
:103CC000456E676C69736800000003E80300000A32
:103CD000000000000400D83CFB3CF23CE93CE03C26
:103CE00000000000000000F10000000000000000E3
:103CF000C40000000000000000F000000000000010
:103D00000000C30000000006000B3D443D3B3D3277
:103D10003D293D203D173D00000000000000EA0065
:103D200000000000000000E90000000000000000AA
:103D3000E80000000000000000E7000000000000B4
:103D40000000E60000000000000000E500000000A8
:103D50000000000000000000FF0000010001060C50
:103D600000FE030229036300FF000AFE0800025759
:103D700067A80088008800A8025767F088E8A8E8CC
:103D800088F002576770A8F8A8F8A8700257677003
:103D90008808080888701245656090109060015886
:103DA0006870888080887808080257672020202063
:103DB000A87020026767F8FCFC9CFCFCF8025767BF
:103DC00070F8F8A8F8F870FFFFFFFFFFFFFF03553A
:103DD000652040F840200257672070A8202020204E
:103DE0000355652010F8102002576720202020A8D6
:103DF000702004536350F8500257672070A820A821
:103E00007020025969C0F0E0A02010100808025983
:103E100069187838282040408080025969808040A5
:103E20004020283878180259690808101020A0E0AE
:103E3000F0C00365652848FC50300365653028FCF8
:103E40004850046363C0D8640463630C6C980365D2
:103E5000652850FC50280258682070A870A82020BF
:103E6000200365655028FC2850025868202020A8AF
:103E700070A870200365652448F0482403656590A8
:103E8000483C48900355652848F848280257672061
:103E900070A8202020F8035565A090F890A0025744
:103EA00067F8202020A870200257672070A820A85B
:103EB00070F80365652844F8402003656550887CE8
:103EC0000810036565204CFC482803656510C8FC94
:103ED000485003646448DCEC480365650858FC6896
:103EE000400257678090B0D0903810025868204048
:103EF000F848280808080258682010F890A0808028
:103F0000800258680808082848F84020025767804F
:103F100080A090F81020035464F010381003556509
:103F2000080848F840035565304848E84803556597
:103F3000609090B810025868F880E0C0A02010107F
:103F4000025969A0C0F8C0A818F8182802566638A7
:103F500030A8888870025666E060A888887005538B
:103F6000632040F8035363F8402022386880C0A0E3
:103F700080808080800238682060A020202020205F
:103F80000553632010F8035363F81020223868802B
:103F900080808080A0C0800238682020202020A05F
:103FA00060200259692010F8102040F84020025883
:103FB0006850F05050505078500259692040F840F5
:103FC0002010F810200259692040F8402040F840A5
:103FD0002002586850F850505050505002596920F3
:103FE00010F8102010F8102002586850505050500F
:103FF00050F8500257672040F800F8102002576729
:104000002010F800F8402002676714287C907C207C
:10401000500267670858FCA4FC6840026767A0501C
:10402000F824F81028035565207880782002576717
:104030002050D85050505003556520F008F0200211
:10404000576750505050D8502003656548FC84FC99
:10405000480258682050D85050D85020026666F860
:10406000A0D0A894080266667C142C54A440026672
:104070006640A4542C147C0266660894A8D0A0F86C
:10408000026767103C40FC403C1002676720F00864
:10409000FC08F02003646440E8D440036464085CD6
:1040A000AC080258682070A8207020702002586860
:1040B0002070207020A870200365652040D4402027
:1040C00002586820708820002000200365651008D1
:1040D000AC0810025868200020002088702003558A
:1040E00065A0C0F8C0A00355652818F81828035526
:1040F0006520788878200258682050D85050505059
:104100007003556520F088F02002586870505050B8
:1041100050D850200259692050D85070007050700B
:104120000259692050D8505050D888F80259692057
:1041300050F8885050D888F80259692070F870708B
:1041400070F8A8F80259692050D850D850505070D3
:104150000259692050D850D850D888F8035565A026
:10416000F088F0A0025868F880B0A090100808020B
:10417000586880804048286808F80258682050D85D
:104180005050D850200365651068FC6810025868CC
:10419000507850505050F05002596910F81010F8F3
:1041A0001010F8100365652848FC48280365655021
:1041B00048FC48500365653078FC78300365653805
:1041C00058FC58380365657068FC68700365653095
:1041D00078FC78300355652060B860200355652071
:1041E00030E830200365653078B47830066666FCC8
:1041F000FCFCFCFCFC006262FCFC006363FCFCFC5D
:10420000006565FCFCFCFCFC006666FCFCFCFCFC40
:10421000FC006868FCFCFCFCFCFCFCFC006969FC24
:10422000FCFCFCFCFCFCFCFC006B6BFCFCFCFCFCEC
:10423000FCFCFCFCFCFC006C6CFCFCFCFCFCFCFCDA
:10424000FCFCFCFCFC005C6CF8F8F8F8F8F8F8F8FA
:10425000F8F8F8F8004C6CF0F0F0F0F0F0F0F0F056
:10426000F0F0F0004C6CF0F0F0F0F0F0F0F0F0F066
:10427000F0F0003C6CE0E0E0E0E0E0E0E0E0E0E016
:10428000E0002C6CC0C0C0C0C0C0C0C0C0C0C0C0B6
:10429000002C6CC0C0C0C0C0C0C0C0C0C0C0C00086
:1042A0001C6C808080808080808080808080303C1A
:1042B0006CE0E0E0E0E0E0E0E0E0E0E0E0016B6B3B
:1042C000A8005400A8005400A80054006C6CA85426
:1042D000A854A854A854A854A854006C6C54FCA822
:1042E000FC54FCA8FC54FCA8FC0A6262FCFC501CB8
:1042F0006C808080808080808080808080003666B6
:10430000E0E0E0E0E0E0303666E0E0E0E0E0E0065B
:104310003666E0E0E0E0E0E0006C6CE0E0E0E0E089
:10432000E0FCFCFCFCFCFC006C6CE0E0E0E0E0E0AD
:104330001C1C1C1C1C1C006C6CFCFCFCFCFCFCE035
:10434000E0E0E0E0E0006C6CFCFCFCFCFCFC1C1C15
:104350001C1C1C1C363666E0E0E0E0E0E0006C6C03
:104360001C1C1C1C1C1CE0E0E0E0E0E0006C6C1C71
:104370001C1C1C1C1CFCFCFCFCFCFC025565F8F81D
:10438000F8F8F8025565F8888888F802556570884D
:10439000888870025565F888A888F8025565F888FD
:1043A000F888F8025565F8A8A8A8F8025565F8A895
:1043B000F8A8F8025565F8C8A898F8025565F89865
:1043C000A8C8F8025565F8D8A8D8F8143363E0E017
:1043D000E0143363E0A0E0036565FCFCFCFCFC0337
:1043E0006565FC848484FC114A6AF0F0F0F0F0F01A
:1043F000F0F0F0F0114A6AF09090909090909090C8
:10440000F00463633C78F00463633C48F002576750
:1044100020207070F8F8F8025767202050508888E4
:10442000F803556520207070F80355652020505022
:10443000F812476780C0E0F0E0C08012476780C094
:10444000A090A0C08013356580C0E0C080133565A2
:1044500080C0A0C080036565C0F0FCF0C003656546
:10446000C0B08CB0C0025767F8F8F8707020200216
:104470005767F8888850502020025565F8707020E2
:1044800020025565F850502020124767103070F018
:10449000703010124767103050905030101335654F
:1044A0002060E060201335652060A0602003656512
:1044B0000C3CFC3C0C0365650C34C4340C035565A2
:1044C0002070F870200355652050885020035565F2
:1044D0002050A850200266663048B4B448300257D5
:1044E00067205050885050200266663048848448C7
:1044F0003002666620088004401002556570A8A846
:10450000A8700257677088A8D8A8887002666630BD
:1045100078FCFC78300266663068E4E46830026655
:104520006630589C9C5830026666304884FC78306F
:104530000266663078FC84483002666630589C8497
:1045400048300266663068E4844830125969083899
:104550007878F87878380802596980E0F0F0F8F057
:10456000F0E080006C6CFCFCFCFCCC8484CCFCFC9B
:10457000FCFC006C6CFCFCFCCCB47878B4CCFCFC8F
:10458000FC066666FCFCFCCCB47800666678B4CCAD
:10459000FCFCFC05336320408035336380402032CF
:1045A00033632040800233638040200563633048DA
:1045B0008402636384483002556508183878F8022D
:1045C000556580C0E0F0F8025565F8F0E0C0800263
:1045D0005565F87838180802556570888888700223
:1045E0005565F8E8E8E8F8025565F8B8B8B8F80293
:1045F0005565F8F8E8C8F8025565F898B8F8F80273
:104600005565F8A8A8A8F802576720205070A88818
:10461000F802576720207070E8E8F80257672020FA
:104620007070B8B8F80267673048848484483002F4
:104630005565F8A8E888F8025565F888E8A8F802F2
:104640005565F888B8A8F8025565F8A8B888F80242
:10465000556570A8E888700255657088E8A87002F2
:1046600055657088B8A87002556570A8B888700341
:104670005565F890A0C080035565F84828180803D0
:10468000556580C0A090F8144464F09090F01344F5
:1046900064F0F0F0F0144464F09090F0144464F08E
:1046A000F0F0F003556508182848F800FFC54600EB
:1046B00000000000000000000000000000000000FA
:1046C0000000000000FB55F755F355EF55EC55E0A1
:1046D00055D755D255C755B755B055A1559D558F8E
:1046E0005586557D5575556B5560555755505549EF
:1046F000554255365529551E5515550755F754EC55
:1047000054E054D554C954BE54B254A35490547D6B
:10471000546A5457544654355424541154FE53EBA0
:1047200053E053D453C853BC53B253A6539A538E39
:1047300053855379536D5360535053415335532927
:10474000531D531153F952E952DC52CD52BE52AFB0
:1047500052A05296528B527F527052635258524C12
:1047600052435239522F5225521D5212520752FCB7
:1047700051F351E351D351C351C251B251A251929D
:104780005191518151715161516051575147513788
:104790005136512D511D510D510C510351F350E320
:1047A00050E250D950CA50C150B150A85098508FC3
:1047B000507F50765066505D504D50445034502AD2
:1047C0005019500C50FE4FF04FE24FD54FC44FB42C
:1047D0004FA84F9A4F8A4F7E4F764F694F5C4F4F8D
:1047E0004F444F3A4F2C4F1C4F0B4FFF4EF54EE8A6
:1047F0004ED84ECE4EC44EB64EA84E9C4E8F4E82D4
:104800004E794E754E6A4E594E4D4E464E354E2798
:104810004E164E084EF74DEA4DDF4DCE4DBD4DAC18
:104820004D9B4D8A4D784D664D5B4D4F4D474D3EEE
:104830004D374D304D294D164D0A4DF94CE74CD7AB
:104840004CC64CB74CB04CAE4CAD4C9F4C8E4C86CD
:104850004C754C6B4C624C574C454C354C254C16AA
:104860004C054CF54BE64BD64BC24BB24BA74B9786
:104870004B864B794B714B654B524B514B464B3DE5
:104880004B364B264B174B0C4B054BF84AEF4ADE89
:104890004ACD4AB94AA14A944A904A7D4A734A622B
:1048A0004A514A454A414A3B4A2D4A294A284A1E0A
:1048B0004A184A114AFE49EB49D849C749B649A5A1
:1048C0004992497F496C495E4953494649394926CD
:1048D0004914490149EE48DB480553536574205A91
:1048E000206F66667365743A2554326D6D005365AA
:1048F000742059206F66667365743A2554316D6D66
:10490000005365742058206F66667365743A2554A9
:10491000306D6D00536574207072696E74206F661F
:104920006673657473005A2D70726F6265206865D6
:10493000696768743A257A68002544332033206318
:104940006F7069657300254432203220636F70698F
:10495000657300254431203120636F707900254450
:1049600030204E6F20636F706965730025583520C5
:1049700053656C65637420657874722E203600254B
:1049800058342053656C65637420657874722E20EA
:1049900035002558332053656C6563742065787441
:1049A000722E2034005475726E20657874722E2039
:1049B00036206F6666005475726E20657874722EAC
:1049C0002035206F6666005475726E2065787472AB
:1049D0002E2034206F66660054656D702E203620C0
:1049E0003A2565352F25453502430054656D702EF7
:1049F0002035203A2565342F25453402430054657F
:104A00006D702E2034203A2565332F25453302431F
:104A100000202542436D6D000525656302000525D4
:104A200065632F254563020000256F7300255566D9
:104A3000206D207072696E74656400255566206D66
:104A40000025557400583A25783020593A25783198
:104A5000004D756C3A20256F6D202020453A257851
:104A600034005A3A2578322020427566203A2025B3
:104A70006F4200422565422F2545620200052565EB
:104A8000632F25456302422565422F2545620200BA
:104A9000256F73004D756C3A2020256F6D252525F7
:104AA00000466C6F773AFD20256F6625252520206E
:104AB00020453A202578346D004275663A20256FEE
:104AC000422020202020205A3A257832000E20252E
:104AD00065622F254562B020593A257831000A20B9
:104AE0002565302F254530B020583A257830004CC8
:104AF000616E677561676500437573746F6D3A2504
:104B000042436D6D00437573746F6D00476C75653E
:104B100020737469636B00477265656E205045545D
:104B2000207461706500426C7565207061706572FB
:104B30002074617065004B6170746F6E004275691E
:104B40006C6454616B004E6F20636F6174696E67B3
:104B5000000042656420636F6174696E672073654D
:104B60007420746F0042656420636F6174696E67BE
:104B7000005374616E64627900457874727564657F
:104B800072206A616D0074656D7065726174757212
:104B90006573202E2E2E005761697420666F722077
:104BA0007461726765740065787472756465727398
:104BB0002E00436C69636B20746F207265686561B9
:104BC000740049676E6F7265204D31303620636D19
:104BD000642025466900536572766F20706F732ECE
:104BE0003A20256F53004175746F6C6576656C3A99
:104BF00020256C6C00436C69636B207768656E20C0
:104C0000646F6E650066696C616D656E74207570A9
:104C10002F646F776E00526F7461746520746F201B
:104C20006D6F7665004368616E67652066696C61CB
:104C30006D656E74004368616E67652066696C61BE
:104C40006D656E74005A2062616279737465702EAE
:104C50003A256F596D6D0053746F70205072696EF4
:104C60007400536C6F7742616E6700446561642025
:104C700074696D650041545820706F776572206FBC
:104C80006E2F6F6666007072696E746564004669A7
:104C90006C616D656E74207072696E74656400502D
:104CA00072696E74696E672074696D6500003A0000
:104CB000206461797320005072696E74657220728D
:104CC000656164792E005344206361726420696ECB
:104CD000736572746564005344206361726420726A
:104CE000656D6F76656400576169742072657472D2
:104CF0002E3A255855206D6D0057616974207465F2
:104D00006D702E202558540243004C6576656C204A
:104D100064656C74610043616C63756C61746520DB
:104D20006C6576656C696E6700536574205033005E
:104D300053657420503200536574205031005A205E
:104D400063616C69622E00536574205A3D300052D5
:104D500065736574206D6561732E0053686F7720ED
:104D60006D6561732E00466C6F77206D756C2E201B
:104D70003A256F66252525005370656564206D759D
:104D80006C2E3A256F6D2525250020423A25656257
:104D90002F25456202437E256F620045333A256523
:104DA000322F25453202437E256F320045323A25A7
:104DB00065312F25453102437E256F310045313A5B
:104DC0002565302F25453002437E256F3000204574
:104DD0003A2565632F25456302437E256F430042D4
:104DE00075666665723A256F420055706C6F616436
:104DF000696E672E2E2E006C6F6164656420662ECE
:104E000020454550524F4D00436F6E66696775727D
:104E10006174696F6E0073746F72656420696E20CF
:104E2000454550524F4D00436F6E6669677572611C
:104E300074696F6E00537465707065722064697375
:104E400061626C6564004B696C6C65640048656107
:104E500074696E67206265640048656174696E6795
:104E600020657874727564657200416374696F6E51
:104E70003A256C61005049440042616E6742616EA0
:104E80006700592D4F66667365743A255879005846
:104E90002D4F66667365743A255878005049442052
:104EA0004D61783A255844004472697665204D6119
:104EB000783A25584D004472697665204D696E3AFE
:104EC00025586D0050494420443A25586400504903
:104ED0004420493A25586900436F6E74726F6C2004
:104EE00050574D3A25584D004465616474696D65AD
:104EF0003A2558700050494420503A2558700043D4
:104F00006F6E74726F6C3A25586800416476616EFA
:104F1000636520717561643A25586100416476616A
:104F20006E6365206C696E3A25586C00537461623B
:104F30002E54696D653A25587700416363656C3A74
:104F4000255841004D61782046523A255846005375
:104F5000746172742046523A255866005374657025
:104F6000732F4D4D3A25536500426175647261742B
:104F7000653A256F630047656E6572616C005B6D15
:104F8000696E5D20303D4F6666004469732E206176
:104F9000667465723A20256970004D61782E20692B
:104FA0006E616374697665005B6D696E5D20303D8E
:104FB0004F6666004469732E2061667465723A20FC
:104FC000256973005374657070657220696E616342
:104FD00074697665005365742066616E2066756C31
:104FE0006C005365742066616E20373525252500D9
:104FF0005365742066616E20353025252500536584
:10500000742066616E203235252525005475726E38
:105010002066616E204F66660046616E2073706583
:1050200065643A2546732525250046616E20737018
:10503000656564004D696E3A25737A204D61783A52
:1050400025735A005A3A257832206D6D004D696EED
:105050003A257379204D61783A25735900593A25DC
:105060007831206D6D004D696E3A257378204D6161
:10507000783A25735800583A257830206D6D004DE8
:10508000696E3A25737A204D61783A25735A005A31
:105090003A257832206D6D004D696E3A257379207E
:1050A0004D61783A25735900593A257831206D6D54
:1050B000004D696E3A257378204D61783A25735812
:1050C00000583A257830206D6D003120636C69639B
:1050D0006B203D2031206D6D00453A257833206DE1
:1050E0006D00004D617820656E6473746F703A25B1
:1050F000735A004D696E20656E6473746F703A2543
:10510000737A005A3A257832206D6D00004D61782F
:1051100020656E6473746F703A257359004D696E23
:1051200020656E6473746F703A25737900593A255F
:105130007831206D6D00004D617820656E64737468
:105140006F703A257358004D696E20656E647374F4
:105150006F703A25737800583A257830206D6D00CD
:10516000004D617820656E6473746F703A25735AD0
:10517000004D696E20656E6473746F703A25737AA2
:10518000005A3A257832206D6D2025647A25645ABC
:1051900000004D617820656E6473746F703A2573FA
:1051A00059004D696E20656E6473746F703A257393
:1051B0007900593A257831206D6D20256479256470
:1051C0005900004D617820656E6473746F703A25E4
:1051D0007358004D696E20656E6473746F703A2564
:1051E000737800583A257830206D6D202564782535
:1051F000645800486F6D653A25665A00486F6D65C2
:10520000205A3A25665A00486F6D6520593A25663E
:105210005900486F6D6520583A256658004D6178F1
:105220003A25667A004D6178205A3A25667A004D13
:10523000617820593A256679004D617820583A25E1
:1052400066780046656564726174650044656C65E6
:1052500074652066696C65004D6F756E74206361BE
:10526000726400556E6D6F756E74206361726400B8
:10527000436F6E74696E7565207072696E7400504C
:1052800061757365207072696E74005072696E7416
:105290002066696C6500416E7469206F6F7A6500E5
:1052A0004D6F76652061667465723A254F61004DD9
:1052B000696E2E6469737420203A254F6400426140
:1052C000636B736C2E2020203A254F620052657468
:1052D000726163742020203A254F7200254F3220DE
:1052E0004F5053206661737400254F31204F505347
:1052F00020636C617373696300254F30204F5053F6
:10530000206F666600456E6453746F703A25647052
:10531000004472792072756E3A2564640045727299
:105320006F7273203A25646500496E666F202020F5
:105330003A256469004563686F2020203A25646F30
:10534000004C6F616420662E20454550524F4D0041
:1053500053746F726520746F20454550524F4D0055
:10536000416363656C65726174696F6E005A2D4AA2
:1053700065726B203A25614A004A65726B202020D5
:105380003A25616A004D6F76653A25615A004D6F86
:105390007665205A203A25615A004D6F766520596E
:1053A000203A256159004D6F76652058203A2561D5
:1053B00058005072696E743A25617A005072696EB5
:1053C00074205A3A25617A005072696E7420593AF5
:1053D000256179005072696E7420583A2561780011
:1053E000536574204F726967696E002558322053E7
:1053F000656C65637420657874722E2033002558BF
:10540000312053656C65637420657874722E203288
:10541000002558302053656C65637420657874727C
:105420002E2031005475726E20657874722E2033F0
:10543000206F6666005475726E20657874722E2037
:1054400032206F6666005475726E20657874722E15
:105450002031206F66660054656D702E2033203A2F
:105460002565322F25453202430054656D702E208C
:1054700032203A2565312F25453102430054656DB0
:10548000702E2031203A2565302F2545300243000B
:105490004265642074656D703A2565622F2545620A
:1054A000024300457874722E20706F736974696FBF
:1054B0006E005A20706F732E2066617374005A203C
:1054C000706F736974696F6E005920706F732E204E
:1054D00066617374005920706F736974696F6E0030
:1054E0005820706F732E2066617374005820706F9F
:1054F000736974696F6E0044697361626C652073CF
:105500007465707065720053657420746F206F72DB
:105510006967696E00436F6F6C646F776E004C69EA
:10552000676874733A256C6F0050726568656174C2
:105530002050455447005072656865617420504C96
:105540004100486F6D65205A00486F6D6520590015
:10555000486F6D65205800486F6D6520616C6C0068
:10556000486F6D652064656C7461004465627567A1
:1055700067696E6700534420636172640045787404
:10558000727564657200506F736974696F6E004361
:105590006F6E66696775726174696F6E00256F65FD
:1055A00000517569636B2073657474696E6773006D
:1055B0004261636B2001002A2A2A2A204552524F59
:1055C00052202A2A2A2A004E6F20534420636172F7
:1055D000640049646C65005072696E74696E67009E
:1055E0005072696E74696E672E2E2E004E6F0059D0
:1055F0006573004E2F41004F6666004F6E0000003D
:105600000A0B02090C0D0E0807030401000000003C
:10561000000000000000000000000000000000008A
:105620000000000000000000000012111000000047
:10563000000000000000000000000000000000006A
:105640000000000001021020200808102040102057
:105650004080020102010804020101020408102036
:105660004080804020100804020180040201804034
:10567000201008040201080402010102040810209D
:10568000408001020408102040800505050507053B
:1056900008080808020202020A0A080804040404AE
:1056A00001010101010101010303030303030303DA
:1056B000040707070C0C0C0C0C0C0C0C0202020269
:1056C00006060606060606060B0B0B0B0B0B0B0B52
:1056D000000020002300260029002C002F003200AB
:1056E000000100000301060109010000220025005D
:1056F00028002B002E0031003400020100000501BB
:1057000008010B0100002100240027002A002D00C1
:105710003000330001010000040107010A01024EBC
:10572000414E494E495459494E46CDCCCC3D0AD7FD
:10573000233C17B7D13877CC2B329595E6241FB18F
:105740004F0A000020410000C84200401C4620BC17
:10575000BE4CCA1B0E5AAEC59D747865C376918047
:1057600011241FBECFEFD1E2DEBFCDBF00E00CBFE2
:1057700013E0A0E0B2E0E2E3FBEE01E00BBF02C009
:1057800007900D92A238B107D9F727E1A2E8B3E05C
:1057900001C01D92A730B207E1F717E5C0E6D7E5D3
:1057A00000E006C022970109FE010BBF0E9412F122
:1057B000CA35D10780E00807A9F70E940FEC0C94C6
:1057C00097F50C9400008F929F92AF92BF92CF9268
:1057D000DF92EF92FF920F931F93CF93DF93CDB79A
:1057E000DEB7F6016083718382839383F5012083A2
:1057F000318342835383F401E082F1820283138375
:10580000DF91CF911F910F91FF90EF90DF90CF909C
:10581000BF90AF909F908F9008958F929F92AF927C
:10582000BF92CF92DF92EF92FF920F931F93CF938D
:10583000DF93CDB7DEB7F6016083718382839383F4
:10584000F5012083318342835383F401E082F182A6
:1058500002831383DF91CF911F910F91FF90EF90FF
:10586000DF90CF90BF90AF909F908F900895CF938F
:10587000C82F0E94BD7680918B038823C9F01092B7
:105880008B030E94325D9091D90291509093D9027E
:10589000911108C080918E0381110E94145B85E0F4
:1058A0008093D9026C2F8FE096E1CF910C94B6E3F0
:1058B000CF91089580915509882349F00E94609EF8
:1058C00080E0D5DF8FE096E10E94B5E3F3CF089545
:1058D0004F925F926F927F928F929F92AF92BF9200
:1058E000CF92DF92EF92FF920F931F93CF93DF93AC
:1058F00000D01F92CDB7DEB78C0180914205909108
:105900004305A0914405B091450589839A83AB83F3
:10591000BC83C0904605D0904705E0904805F090C4
:10592000490580904A0590904B05A0904C05B09099
:105930004D059C01AD01BC01CD010E944AF08111D1
:105940000FC149805A806B807C80E89477F82FEFF4
:105950003FEF4FE75FE7C301B2010E944AF08111B8
:105960000BC02FEF3FEF4FE75FE7C301B2010E948B
:10597000F7EC18160CF4F4C0A7019601C701B601A4
:105980000E944AF08111ECC026013701E89477F8B3
:105990002FEF3FEF4FE75FE7C301B2010E944AF0EC
:1059A00081110BC02FEF3FEF4FE75FE7C301B2015B
:1059B0000E94F7EC18160CF4D3C0A5019401C501A0
:1059C000B4010E944AF08111CBC024013501E89452
:1059D00077F82FEF3FEF4FE75FE7C301B2010E9477
:1059E0004AF081110BC02FEF3FEF4FE75FE7C30194
:1059F000B2010E94F7EC18160CF4B2C020911A05FF
:105A000030911B0540911C0550911D0569817A81DB
:105A10008B819C810E941EEC2B013C0120911E0574
:105A200030911F054091200550912105C701B60115
:105A30000E941EEC6B017C01209122053091230510
:105A40004091240550912505C501B4010E941EEC2A
:105A50004B015C0180919405882329F020E732E412
:105A600041E25DE304C020E030E040E85FE3C301D1
:105A7000B2010E949CEFAB01BC0122E083E09EE0FA
:105A80000E94D44280919405882329F020E732E4D3
:105A900041E25DE304C020E030E040E85FE3C7019D
:105AA000B6010E949CEFAB01BC0122E08FEF9DE0AC
:105AB0000E94D44280919405882329F020E732E4A3
:105AC00041E25DE304C020E030E040E85FE3C5016F
:105AD000B4010E949CEFAB01BC0123E08BEF9DE081
